:020000040000FA
:10000000880C0020B5040000BD040000BF040000FF
:10001000C1040000C3040000C5040000000000008B
:10002000000000000000000000000000C704000005
:10003000C904000000000000CB040000CD04000053
:10004000CF040000CF040000CF040000CF04000064
:10005000CF040000CF040000CF040000CF04000054
:10006000CF040000CF040000CF040000CF04000044
:10007000CF040000CF040000CF040000CF04000034
:10008000CF040000CF040000CF040000CF04000024
:10009000CF040000CF040000CF040000CF04000014
:1000A000CF040000CF040000CF040000CF04000004
:1000B000CF040000CF040000CF040000CF040000F4
:1000C000CF040000CF040000CF040000CF040000E4
:1000D000CF040000CF040000CF040000CF040000D4
:1000E000CF040000CF040000CF040000CF040000C4
:1000F000CF040000CF040000CF040000CF040000B4
:10010000CF040000CF040000CF040000CF040000A3
:10011000CF040000CF040000CF040000CF04000093
:10012000CF040000CF040000CF040000CF04000083
:10013000CF040000CF040000CF040000CF04000073
:10014000CF040000CF040000CF040000CF04000063
:10015000E90A0000CF040000CF040000CF04000033
:10016000CF040000CF040000CF040000CF04000043
:10017000CF040000CF040000CF040000CF04000033
:10018000CF040000CF040000CF040000CF04000023
:10019000CF040000CF040000CF040000CF04000013
:10040000FFFFFFFFFFFFFFFFFFFFFFFFFEFFFFFFFD
:1004100000F002F800F03FF80AA090E8000C8244D7
:100420008344AAF10107DA4501D100F034F8AFF2B4
:10043000090EBAE80F0013F0010F18BFFB1A43F0C2
:1004400001031847840B0000A40B0000103A24BFDE
:1004500078C878C1FAD8520724BF30C830C144BF29
:1004600004680C607047000000230024002500266B
:10047000103A28BF78C1FBD8520728BF30C148BF07
:100480000B607047642900F07D80002070471FB525
:100490001FBD10B510BD00F02AF91146FFF7F7FF98
:1004A00000F0D6FC00F048F903B4FFF7F2FF03BCFC
:1004B00000F050F90948804709480047FEE7FEE789
:1004C000FEE7FEE7FEE7FEE7FEE7FEE7FEE7FEE704
:1004D00004480549054A064B704700001D0D000001
:1004E0001104000088000020880C002088040020EF
:1004F000880400200FB41CB5074B06AA7B4469464C
:100500000090059800F0DBF80020694600F0EAF85A
:100510001CBC5DF814FB0000E50100002DE9F04172
:100520000E460446002020622046E168884730B32A
:10053000252805D0D4E901219047206A401CF2E724
:10054000E168204600278847050018D0A5F1410042
:10055000192802D820354FF4006732462946204634
:100560002760FFF78FFF40B1012804D0F61D26F069
:1005700007060836D8E7361DD6E72846DAE7206AA8
:10058000BDE8F0812DE9F041064600241068752988
:10059000314616A510D0AFF30080002802DA4042A1
:1005A00013A507E031688A0701D512A502E04907C3
:1005B00004D511A5012401E0AFF3008000210A2237
:1005C00006F1240709E0B0FBF2FCB0FBF2F302FBFA
:1005D0001C00303078541846491C0028F3D12346BB
:1005E0002A463046BDE8F04100F00BB8000000009C
:1005F0002D0000002B000000200000007047704715
:1006000070472DE9F0470D4699469246044600F1A1
:1006100024080168880604D5E06921F010012160F2
:1006200000E00120A84201DD471B00E00027A1698E
:100630007A1902EB0900081AA0612078C00602D4DA
:100640002046AFF30080002608E0D4E901211AF823
:1006500006009047206A401C761C20624E45F4DB61
:100660002078C0060AD52046AFF3008006E0D4E922
:10067000012130209047206A401C2062381EA7F1DB
:100680000107F4DC07E0D4E9012118F805009047E0
:10069000206A401C2062281EA5F10105F3DC2046DB
:1006A000AFF300802078000602D50220BDE8F08775
:1006B0000120FBE701694A1C02610878704700B518
:1006C0008FB0CDE901310021059105497944CDE98B
:1006D000031011466846FFF721FF0FB000BD000070
:1006E000E5FFFFFF0A6802F8010B0A6070477546D4
:1006F00000F02CF8AE4605006946534620F007008E
:10070000854618B020B5FFF7E3FEBDE820404FF066
:1007100000064FF000074FF000084FF0000B21F0EB
:100720000701AC46ACE8C009ACE8C009ACE8C009B8
:10073000ACE8C0098D46704710B50446AFF30080A1
:100740002046BDE81040FFF7AFBE000000487047EC
:100750002400002001491820ABBEFEE7260002005D
:10076000704700000EB50121C80600F02BFA0121E8
:10077000480200F01BFA002207210E4800F06CF935
:1007800000208DF8000003218DF802108DF8040080
:100790008DF803008DF806008DF8050001218DF815
:1007A00001108DF808008DF807006946024800F036
:1007B0005DF80EBD0090044000B0034010B5016A22
:1007C000CBB2416ACAB2016A21F040010162416ABA
:1007D0004162016A0906FCD4416A490605D5416AAD
:1007E00041F040014162012010BDC16C846C214484
:1007F000446C2144046C2144C46B2144846B214427
:10080000C1F34E0101F5004189B2C162C16E846E2F
:100810002144446E2144046E2144C46D2144846DFE
:100820002144C1F34E0101F5004189B201634262E6
:100830000362002010BD50F8223023F01F0340F85F
:10084000223050F8223001F01F010B4340F82230D3
:10085000704700EB8100006980B2704702460020BB
:1008600052F82110090600D50120704710B48268A3
:1008700022F00C02826082680B7942EA8302826075
:10088000826822F00302826082684B781A43826099
:10089000826822F0100282600A78042A826840D0BE
:1008A00042F010028260C26822F00302C260C26895
:1008B0000B781A43C260826822F06002826082680C
:1008C0008B7842EA431282604A7950F8223023F052
:1008D000200340F822304A7950F82230CC7843EA9D
:1008E000841340F82230026A22F040020262026A57
:1008F0008B7942EA83120262426A22F00802426263
:10090000426A0B7A42EAC3024262026A22F004029D
:100910000262026AC97942EA8101016210BCFFF7F2
:100920004DBF8260C7E7000010B5094C00220A21C4
:100930002046FFF780FF00212046FFF78FFF0028A9
:10094000F9D02046BDE810400021FFF782BF00002B
:1009500000B0034031B50098C00500D001200099D7
:1009600010EB512406D04FF40075284600F004F82F
:10097000641EFAD138BD000001B5BDF800000B4976
:10098000496848434FF0E021486100238B610869C2
:1009900040F0010008610869C20701D0C003FAD520
:1009A000086920F0010008618B6108BD000000208B
:1009B00070B5264C4FF48055021BA04210D006DCC7
:1009C000234A821809D0AA4212D1224B10E0AA422F
:1009D00009D0B2F5005F0BD108E01E4B403B07E0A9
:1009E0001C4B403304E01B4B803301E0194BC033F8
:1009F000002201260D6806FA02F4254220D050F8A4
:100A000022506FF30A0540F8225050F8225045F466
:100A1000807540F822500D79002D5D6902D0254384
:100A20005D610DE0A5435D6150F8224044F0020491
:100A300040F8224050F822404D79AC4340F8224023
:100A4000521CD2B2202AD5D370BD000000B00440A1
:100A50000070FBBF40F00F4050F8213023F4E063FA
:100A600040F821304FF4E06303EA022240F82120ED
:100A70007047000070B5184D686A184CC0F302103A
:100A80002070686A00F00F0060700120A07000F014
:100A9000C1F8134800686060696CC1F30361491CC8
:100AA000B0FBF1F1A160696CC1F30351491CB0FBCB
:100AB000F1F1E160696CC1F30341491CB0FBF1F055
:100AC0002061E86CC0F30360A08206480068C0F3B0
:100AD0000330E08270BD0000008004400C00002064
:100AE00008000020007004400EB50948D0F83C1200
:100AF000C943C163FFF718FF024606A16846FFF726
:100B0000F9FC684600F08CF9002000F009F80EBDF1
:100B10000000FE434144433A25640D0A0D0A0000DB
:100B2000010104480844D0F80C1141F00101C0F85B
:100B30000C11704700700340154B10B502460020A1
:100B40001860117803EB0111C1F8080111785068A1
:100B500003EB0111401EC1F800011078012144305F
:100B600040B200F01F04A1404009800000F1E020E5
:100B7000C0F800111078FFF7D3FF107803EB0010D6
:100B8000D0F8081141F00301C0F8081110BD0000B1
:100B900000700340044A0029516B01D0014300E07A
:100BA000814351637047000000800440044A0029DB
:100BB000916B01D0014300E08143916370470000D5
:100BC00000800440044A0029D16B01D0014300E0B9
:100BD0008143D163704700000080044010B54FF09E
:100BE000E020016941F004010161FFF743FF06487D
:100BF00006494FF47A724068B0FBF1F0044980B2C4
:100C000008805043486010BD0C00002040420F0097
:100C10000000002030B53C4908783C4B84094FF473
:100C200000404FF001020FD00C78B2EB941F58D166
:100C30004B78DB075ED0087A3549C0F3420002FAF0
:100C400000F0B1FBF0F055E04C7964063ED40C782E
:100C5000640710D40C7BE40700D118460B78C3F36B
:100C6000C20302FA03F3DBB2B0FBF3F04B7813F0EC
:100C7000300F00D04009C97801F0E00111F01F0FDA
:100C800038D14911082935D2DFE801F004070B0FEC
:100C900013171A1D00EB800005E000EB8000000236
:100CA00028E0C0EB0010C00124E000EB800040020F
:100CB00020E04FF4377148431CE04FF4B761FAE786
:100CC00040F69501F7E740F67131F4E70879497984
:100CD00000F01F00401CB3FBF0F001F01F011831C1
:100CE000E9E70C780225B5EB941F0BD1097BC90706
:100CF00000D118460749496C02EB1171B0FBF1F0C5
:100D00000549086030BD00000040064000127A002E
:100D100000093D00008004400800002011484CF20A
:100D20002051C1814DF62811C1814FF4E971018034
:100D30000D494FF4881048640C48062101700021C9
:100D40004170C27802F03F0242F02002C27001718D
:100D500041718179C906FCD5817911F00C0FFBD165
:100D6000704700000020054000800440004006401D
:100D70000246002012790A4200D00120704700008C
:100D800070B50D460446FFF775FE2048204A81687D
:100D9000944202D01F4A944200D141682A6810014F
:100DA000B1FBF0F04900B1FBF2F1424201EB42111C
:100DB000E27822F00C02E270A27822F01002A27017
:100DC000A2782B791A43A270A27822F00202A270B4
:100DD000A278AB791A43A270627922F02002627184
:100DE000227822F01F0222702278C0F304231A43D3
:100DF00022706070A07A01F01F010843A072E078B1
:100E0000E070E078297A0843E07070BD0C000020A3
:100E100000A0064000B00640C0797047C17170471D
:100E200070B505460024094E0BE080213046FFF7DF
:100E30009FFF0028F9D0295D3046FFF7EFFF641CC3
:100E4000A4B2285D0028F0D170BD000000A00640CB
:100E5000A6B001218802FFF79DFE01214FF4C0607A
:100E6000FFF7A4FE0121C805FFF7ACFE4FF4404098
:100E70004FF00108404E1B9045468DF870801BA92D
:100E80003046FFF795FD4FF000094FF480501B905E
:100E90008DF870904C468DF871901BA93046FFF785
:100EA00087FD8DF870504FF44030344D1B901BA9D6
:100EB0002846FFF77DFD032210212846FFF7CCFDD1
:100EC000032211212846FFF7C7FD4FF4E1301D90A2
:100ED0000C202B4DADF87840ADF87C00ADF87A4091
:100EE0001DA92846FFF74CFF264821908DF8804029
:100EF00020A8FFF721FEFFF771FEFFF733FC224821
:100F000042688178CDE90012437802781FA102A8D7
:100F1000FFF7F0FA2B48C463824622AFDAF83012AA
:100F20005046012903D0C0F8388000260EE0C0F8F2
:100F3000389002A8FFF774FF4FF47A70FFF70AFDAC
:100F4000ECE72846FFF768FFB855761C20212846B5
:100F5000FFF70EFF0028F4D100240AE08021284684
:100F6000FFF706FF0028F9D0395D2846FFF756FF46
:100F7000641CB442D2DAF1E70090044000A00440BF
:100F800000A00640404B4C000C0000204D6F6465F3
:100F90006CA3BA25640D0A50696E5F4E756D3A25D3
:100FA000640D0A4672657175656E63793A25640D44
:100FB0000A436F7265436C6F636B3A25640D0A0DCB
:100FC0000A0000000000FE43E80F000000000020BF
:100FD0000C0000004C040000F40F00000C00002086
:100FE0007C0C00006804000000000000000000000D
:040FF000000080027B
:0400000500000411E2
:00000001FF
